:020000040000FA
:100000000C945D000C9485000C9485000C94850084
:100010000C9485000C9485000C9485000C9485004C
:100020000C9485000C9485000C9485000C9485003C
:100030000C9485000C9485000C9485000C9485002C
:100040000C945F020C9485000C94CF020C94A902CE
:100050000C9485000C9485000C9485000C9485000C
:100060000C9485000C94850000000008000201003B
:100070000003040700000000000000000000000072
:10008000250028002B0000000000240027002A0083
:10009000040404040404040402020202020203032E
:1000A0000303030301020408102040800102040836
:1000B0001020010204081020A40411241FBECFEF59
:1000C000D8E0DEBFCDBF11E0A0E0B1E0E2EBF9E0A7
:1000D00002C005900D92A634B107D9F721E0A6E43D
:1000E000B1E001C01D92AD3EB207E1F710E0CDE5F1
:1000F000D0E004C02197FE010E94D104CC35D10785
:10010000C9F70E9401030C94D7040C94000090E0FE
:10011000FC01EC55FF4F249180579F4FFC018491C7
:10012000882399F090E0880F991FFC01EA57FF4F50
:10013000A591B491FC01E458FF4F859194918FB73C
:10014000F894EC91E22BEC938FBF089590E0FC01C2
:10015000E859FF4F2491FC01EC55FF4F3491FC010D
:10016000E057FF4FE491EE23C9F0222339F023300A
:1001700001F1A8F4213019F1223029F1F0E0EE0F5D
:10018000FF1FE458FF4FA591B4918FB7F894EC91FD
:10019000611126C030953E233C938FBF08952730D0
:1001A000A9F02830C9F0243049F7809180008F7D74
:1001B00003C0809180008F7780938000DFCF84B56B
:1001C0008F7784BDDBCF84B58F7DFBCF8091B0006E
:1001D0008F778093B000D2CF8091B0008F7DF9CF20
:1001E0003E2BDACFE82FF0E0E859FF4FE491E330FF
:1001F00011F138F4E130A9F0E230C1F061E00C9483
:10020000A600E73011F1E83041F1E430B9F7809110
:10021000800080628093800070938B0060938A00DE
:10022000089584B5806884BD67BD089584B58062F3
:1002300084BD68BD089580918000806880938000AF
:10024000709389006093880008958091B000806861
:100250008093B0006093B30008958091B0008062F5
:100260008093B0006093B4000895AF92BF92CF9294
:10027000DF92EF92FF920F931F93CF93DF936C0166
:100280007B018B01040F151FEB015E01AE18BF0847
:10029000C017D10759F06991D601ED91FC910190F9
:1002A000F081E02DC6010995892B79F7C501DF9111
:1002B000CF911F910F91FF90EF90DF90CF90BF9063
:1002C000AF900895FC01538D448D252F30E0842F8D
:1002D00090E0821B930B541710F0CF96089501976E
:1002E0000895FC01918D828D981761F0A28DAE0F5B
:1002F000BF2FB11D5D968C91928D9F5F9F73928FE2
:1003000090E008958FEF9FEF0895FC01918D828D0D
:10031000981731F0828DE80FF11D858D90E00895DA
:100320008FEF9FEF0895FC01918D228D892F90E032
:10033000805C9F4F821B91098F739927089580E5F8
:1003400091E00E94930121E0892B09F420E0822FA3
:10035000089580E090E0892B29F00E949F0181118F
:100360000C9400000895FC01A48DA80FB92FB11DB5
:10037000A35ABF4F2C91848D90E001968F739927DB
:10038000848FA689B7892C93A089B1898C918370B9
:1003900080648C93938D848D981306C00288F389B2
:1003A000E02D80818F7D80830895EF92FF920F93DF
:1003B0001F93CF93DF93EC0181E0888F9B8D8C8D11
:1003C00098131AC0E889F989808185FF15C09FB705
:1003D000F894EE89FF896083E889F98980818370C8
:1003E000806480839FBF81E090E0DF91CF911F9177
:1003F0000F91FF90EF900895F62E0B8D10E00F5F98
:100400001F4F0F731127E02E8C8D8E110CC00FB66D
:1004100007FCFACFE889F989808185FFF5CFCE0105
:100420000E94B301F1CFEB8DEC0FFD2FF11DE35ACC
:10043000FF4FF0829FB7F8940B8FEA89FB89808188
:100440008062CFCFCF93DF93EC01888D8823B9F002
:10045000AA89BB89E889F9898C9185FD03C08081CF
:1004600086FD0DC00FB607FCF7CF8C9185FFF2CF4C
:10047000808185FFEDCFCE010E94B301E9CFDF91EE
:10048000CF910895CF93DF93FC0101900020E9F70D
:100490003197AF01481B590BBC0180E591E00E94E8
:1004A0003501EC0142E050E062E171E080E591E06D
:1004B0000E9435018C0F9D1FDF91CF9108951F92EF
:1004C0000F920FB60F9211242F933F938F939F9308
:1004D000AF93BF9380914C0190914D01A0914E013B
:1004E000B0914F0130914B0123E0230F2D3758F588
:1004F0000196A11DB11D20934B0180934C01909357
:100500004D01A0934E01B0934F018091470190910E
:100510004801A0914901B0914A010196A11DB11D68
:100520008093470190934801A0934901B0934A01F9
:10053000BF91AF919F918F913F912F910F900FBEDF
:100540000F901F90189526E8230F0296A11DB11D4C
:10055000D2CF1F920F920FB60F9211242F933F9379
:100560004F935F936F937F938F939F93AF93BF93BB
:10057000EF93FF9380E591E00E94B301FF91EF912B
:10058000BF91AF919F918F917F916F915F914F91AB
:100590003F912F910F900FBE0F901F9018951F92B3
:1005A0000F920FB60F9211242F938F939F93EF9377
:1005B000FF93E0916001F09161018081E09166011B
:1005C000F091670182FD1BC09081809169018F5F6E
:1005D0008F7320916A01821741F0E0916901F0E088
:1005E000E05BFE4F958F80936901FF91EF919F91A2
:1005F0008F912F910F900FBE0F901F9018958081B3
:10060000F4CF789484B5826084BD84B5816084BD64
:1006100085B5826085BD85B5816085BD80916E00A0
:10062000816080936E0010928100809181008260D1
:10063000809381008091810081608093810080910E
:1006400080008160809380008091B10084608093FD
:10065000B1008091B00081608093B00080917A00F9
:10066000846080937A0080917A00826080937A001F
:1006700080917A00816080937A0080917A0080680E
:1006800080937A001092C100E0916001F0916101C5
:1006900082E08083E0915C01F0915D011082E09145
:1006A0005E01F0915F018FEC808310926801E09110
:1006B0006401F091650186E08083E0916201F09130
:1006C0006301808180618083E0916201F091630128
:1006D000808188608083E0916201F0916301808174
:1006E00080688083E0916201F091630180818F7D59
:1006F00080838EE00E9487008FE00E9487008DE05B
:100700000E94870082E00E94870083E00E948700A9
:1007100084E00E94870085E00E94870086E00E94B6
:10072000870081E10E94870082E10E94870087E0C4
:100730000E94870088E00E9487008BE00E9487006B
:100740008CE00E94870089E00E9487008AE00E9476
:10075000870061E08EE00E94A60061E08FE00E94C9
:10076000A60061E081E10E94A60061E082E10E94B2
:10077000A60061E085E00E94A60061E086E00E949C
:10078000A60089E00E94870060EF70E089E00E9487
:10079000F2008AE00E9487006DEF70E08AE00E941C
:1007A000F200C0E0D0E080E591E00E9493011816CD
:1007B00019060CF0BEC080E591E00E9471018093A3
:1007C00046018634A1F460E08DE00E94A60060E05E
:1007D00083E00E94A60061E082E00E94A60061E042
:1007E00084E00E94A60085E191E00E94420280918F
:1007F00046018234A1F461E08DE00E94A60061E030
:1008000083E00E94A60060E082E00E94A60060E013
:1008100084E00E94A6008DE191E00E944202809156
:1008200046018C34A1F460E08DE00E94A60061E0F6
:1008300083E00E94A60061E082E00E94A60060E0E2
:1008400084E00E94A60086E291E00E94420280912C
:1008500046018235A1F461E08DE00E94A60060E0CF
:1008600083E00E94A60060E082E00E94A60061E0B2
:1008700084E00E94A6008BE291E00E9442028091F7
:100880004601833521F560E08DE00E94A60060E01E
:1008900083E00E94A60060E082E00E94A60060E083
:1008A00084E00E94A60060E087E00E94A60060E06D
:1008B0008BE00E94A60060E088E00E94A60060E055
:1008C0008CE00E94A60081E391E00E9442028091A8
:1008D00046018535A1F460E087E00E94A60060E053
:1008E0008BE00E94A60061E088E00E94A60061E023
:1008F0008CE00E94A60086E391E00E944202809173
:100900004601843409F04FCF61E087E00E94A600E1
:1009100061E08BE00E94A60060E088E00E94A600F3
:1009200060E08CE00E94A6008DE391E00E9442020C
:100930003ACF209709F437CF0E949F01882309F40A
:1009400032CF0E9400002FCFE0E5F1E01382128247
:1009500088EE93E0A0E0B0E084839583A683B7831C
:1009600084E091E09183808385EC90E09587848793
:1009700084EC90E09787868780EC90E0918B808B69
:1009800081EC90E0938B828B82EC90E0958B848B52
:1009900086EC90E0978B868B118E128E138E148EC0
:1009A0000895EE0FFF1F0590F491E02D0994F8943F
:1009B000FFCF00000000D501350162012202930142
:1009C000710185010D0A00666F72776172640062C1
:1009D00061636B77617264006C656674007269674D
:1009E00068740073746F700075706C69667400646D
:0809F0006F776E6C69667400FC
:107E0000112484B714BE81FFF0D085E080938100F7
:107E100082E08093C00088E18093C10086E0809377
:107E2000C20080E18093C4008EE0C9D0259A86E02C
:107E300020E33CEF91E0309385002093840096BBD3
:107E4000B09BFECF1D9AA8958150A9F7CC24DD24C4
:107E500088248394B5E0AB2EA1E19A2EF3E0BF2EE7
:107E6000A2D0813461F49FD0082FAFD0023811F036
:107E7000013811F484E001C083E08DD089C08234E0
:107E800011F484E103C0853419F485E0A6D080C0E4
:107E9000853579F488D0E82EFF2485D0082F10E0AE
:107EA000102F00270E291F29000F111F8ED06801E7
:107EB0006FC0863521F484E090D080E0DECF843638
:107EC00009F040C070D06FD0082F6DD080E0C81688
:107ED00080E7D80618F4F601B7BEE895C0E0D1E017
:107EE00062D089930C17E1F7F0E0CF16F0E7DF06D8
:107EF00018F0F601B7BEE89568D007B600FCFDCFD4
:107F0000A601A0E0B1E02C9130E011968C91119780
:107F100090E0982F8827822B932B1296FA010C0160
:107F200087BEE89511244E5F5F4FF1E0A038BF0790
:107F300051F7F601A7BEE89507B600FCFDCF97BE46
:107F4000E89526C08437B1F42ED02DD0F82E2BD052
:107F50003CD0F601EF2C8F010F5F1F4F84911BD097
:107F6000EA94F801C1F70894C11CD11CFA94CF0C13
:107F7000D11C0EC0853739F428D08EE10CD085E9AC
:107F80000AD08FE07ACF813511F488E018D01DD067
:107F900080E101D065CF982F8091C00085FFFCCF94
:107FA0009093C60008958091C00087FFFCCF809118
:107FB000C00084FD01C0A8958091C6000895E0E648
:107FC000F0E098E1908380830895EDDF803219F02E
:107FD00088E0F5DFFFCF84E1DECF1F93182FE3DFCA
:107FE0001150E9F7F2DF1F91089580E0E8DFEE27F6
:047FF000FF270994CA
:027FFE00040479
:00000001FF
